{
  "contractName": "MyContract",
  "abi": [
    {
      "inputs": [],
      "payable": true,
      "stateMutability": "payable",
      "type": "constructor"
    },
    {
      "anonymous": false,
      "inputs": [
        {
          "indexed": true,
          "internalType": "address",
          "name": "accountAddress",
          "type": "address"
        },
        {
          "indexed": false,
          "internalType": "uint256",
          "name": "amount",
          "type": "uint256"
        }
      ],
      "name": "LogDepositMade",
      "type": "event"
    },
    {
      "constant": true,
      "inputs": [],
      "name": "owner",
      "outputs": [
        {
          "internalType": "address",
          "name": "",
          "type": "address"
        }
      ],
      "payable": false,
      "stateMutability": "view",
      "type": "function"
    },
    {
      "constant": false,
      "inputs": [],
      "name": "enroll",
      "outputs": [
        {
          "internalType": "uint256",
          "name": "",
          "type": "uint256"
        }
      ],
      "payable": false,
      "stateMutability": "nonpayable",
      "type": "function"
    },
    {
      "constant": false,
      "inputs": [],
      "name": "deposit1",
      "outputs": [
        {
          "internalType": "uint256",
          "name": "",
          "type": "uint256"
        }
      ],
      "payable": true,
      "stateMutability": "payable",
      "type": "function"
    },
    {
      "constant": false,
      "inputs": [
        {
          "internalType": "uint256",
          "name": "withdrawAmount",
          "type": "uint256"
        }
      ],
      "name": "deposit",
      "outputs": [
        {
          "internalType": "string",
          "name": "msg1",
          "type": "string"
        }
      ],
      "payable": false,
      "stateMutability": "nonpayable",
      "type": "function"
    },
    {
      "constant": true,
      "inputs": [],
      "name": "balance",
      "outputs": [
        {
          "internalType": "uint256",
          "name": "",
          "type": "uint256"
        }
      ],
      "payable": false,
      "stateMutability": "view",
      "type": "function"
    },
    {
      "constant": true,
      "inputs": [],
      "name": "depositsBalance",
      "outputs": [
        {
          "internalType": "uint256",
          "name": "",
          "type": "uint256"
        }
      ],
      "payable": false,
      "stateMutability": "view",
      "type": "function"
    }
  ],
  "bytecode": "0x608060405233600260006101000a81548173ffffffffffffffffffffffffffffffffffffffff021916908373ffffffffffffffffffffffffffffffffffffffff160217905550600a60038190555060008060006101000a81548160ff021916908360ff1602179055506040518060400160405280600e81526020017f616c65727420616c657274212121000000000000000000000000000000000000815250600590805190602001906100b39291906100b9565b5061015e565b828054600181600116156101000203166002900490600052602060002090601f016020900481019282601f106100fa57805160ff1916838001178555610128565b82800160010185558215610128579182015b8281111561012757825182559160200191906001019061010c565b5b5090506101359190610139565b5090565b61015b91905b8082111561015757600081600090555060010161013f565b5090565b90565b6107c38061016d6000396000f3fe6080604052600436106100555760003560e01c8063138fbe711461005a5780638da5cb5b14610085578063b69ef8a8146100b0578063b6b55f25146100db578063c8f73d9814610118578063e65f2a7e14610136575b600080fd5b34801561006657600080fd5b5061006f610161565b60405161007c91906106b2565b60405180910390f35b34801561009157600080fd5b5061009a610169565b6040516100a79190610655565b60405180910390f35b3480156100bc57600080fd5b506100c561018f565b6040516100d291906106b2565b60405180910390f35b3480156100e757600080fd5b5061010260048036036100fd919081019061056f565b6101d6565b60405161010f9190610670565b60405180910390f35b610120610399565b60405161012d91906106b2565b60405180910390f35b34801561014257600080fd5b5061014b61047b565b60405161015891906106b2565b60405180910390f35b600047905090565b600260009054906101000a900473ffffffffffffffffffffffffffffffffffffffff1681565b6000600160003373ffffffffffffffffffffffffffffffffffffffff1673ffffffffffffffffffffffffffffffffffffffff16815260200190815260200160002054905090565b60606103e8821061021c576040517f08c379a000000000000000000000000000000000000000000000000000000000815260040161021390610692565b60405180910390fd5b600160003373ffffffffffffffffffffffffffffffffffffffff1673ffffffffffffffffffffffffffffffffffffffff1681526020019081526020016000205482116102f75781600160003373ffffffffffffffffffffffffffffffffffffffff1673ffffffffffffffffffffffffffffffffffffffff168152602001908152602001600020600082825403925050819055503373ffffffffffffffffffffffffffffffffffffffff166108fc839081150290604051600060405180830381858888f193505050501580156102f5573d6000803e3d6000fd5b505b60058054600181600116156101000203166002900480601f01602080910402602001604051908101604052809291908181526020018280546001816001161561010002031660029004801561038d5780601f106103625761010080835404028352916020019161038d565b820191906000526020600020905b81548152906001019060200180831161037057829003601f168201915b50505050509050919050565b600034600160003373ffffffffffffffffffffffffffffffffffffffff1673ffffffffffffffffffffffffffffffffffffffff168152602001908152602001600020600082825401925050819055503373ffffffffffffffffffffffffffffffffffffffff167fa8126f7572bb1fdeae5b5aa9ec126438b91f658a07873f009d041ae690f3a1933460405161042e91906106b2565b60405180910390a2600160003373ffffffffffffffffffffffffffffffffffffffff1673ffffffffffffffffffffffffffffffffffffffff16815260200190815260200160002054905090565b600060036000809054906101000a900460ff1660ff1610156105155760008081819054906101000a900460ff168092919060010191906101000a81548160ff021916908360ff16021790555050678ac7230489e80000600160003373ffffffffffffffffffffffffffffffffffffffff1673ffffffffffffffffffffffffffffffffffffffff168152602001908152602001600020819055505b600160003373ffffffffffffffffffffffffffffffffffffffff1673ffffffffffffffffffffffffffffffffffffffff16815260200190815260200160002054905090565b60008135905061056981610769565b92915050565b60006020828403121561058157600080fd5b600061058f8482850161055a565b91505092915050565b6105a1816106e9565b82525050565b60006105b2826106cd565b6105bc81856106d8565b93506105cc818560208601610725565b6105d581610758565b840191505092915050565b60006105ed6039836106d8565b91507f54687265736f6c64206c696d6974206f662035302063726f73736564206e6f7460008301527f20706f737369626c6520746f2070726f636565642021212121000000000000006020830152604082019050919050565b61064f8161071b565b82525050565b600060208201905061066a6000830184610598565b92915050565b6000602082019050818103600083015261068a81846105a7565b905092915050565b600060208201905081810360008301526106ab816105e0565b9050919050565b60006020820190506106c76000830184610646565b92915050565b600081519050919050565b600082825260208201905092915050565b60006106f4826106fb565b9050919050565b600073ffffffffffffffffffffffffffffffffffffffff82169050919050565b6000819050919050565b60005b83811015610743578082015181840152602081019050610728565b83811115610752576000848401525b50505050565b6000601f19601f8301169050919050565b6107728161071b565b811461077d57600080fd5b5056fea365627a7a723158204991fd69e18079e9b3ac8c896adb90a22e9fc3781b0b328e9f094f88844094f16c6578706572696d656e74616cf564736f6c63430005100040",
  "source": "pragma solidity >=0.4.22 <0.8.0;\r\npragma experimental ABIEncoderV2;\r\n\r\ncontract MyContract {\r\n    uint8 private clientCount;\r\n    mapping(address => uint256) private balances;\r\n    address public owner;\r\n    uint256 thresold;\r\n    string regulator;\r\n    string waring;\r\n    // Log the event about a deposit being made by an address and its amount\r\n    event LogDepositMade(address indexed accountAddress, uint256 amount);\r\n\r\n    // Constructor is \"payable\" so it can receive the initial funding of 30,\r\n    // required to reward the first 3 clients\r\n    constructor() public payable {\r\n        /* Set the owner to the creator of this contract */\r\n\r\n        owner = msg.sender;\r\n        thresold = 10;\r\n        clientCount = 0;\r\n        waring = \"alert alert!!!\";\r\n    }\r\n\r\n    function enroll() public returns (uint256) {\r\n        if (clientCount < 3) {\r\n            clientCount++;\r\n            balances[msg.sender] = 10 ether;\r\n        }\r\n        return balances[msg.sender];\r\n    }\r\n\r\n    /// @notice Deposit ether into bank, requires method is \"payable\"\r\n    /// @return The balance of the user after the deposit is made\r\n    function deposit1() public payable returns (uint256) {\r\n        // require(withdrawAmount < 10, \"thresold value crossed !!!!\");\r\n        balances[msg.sender] += msg.value;\r\n        emit LogDepositMade(msg.sender, msg.value);\r\n        return balances[msg.sender];\r\n    }\r\n\r\n    function deposit(uint256 withdrawAmount)\r\n        public\r\n        returns (string memory msg1)\r\n    {\r\n        // Check enough balance available, otherwise just return balance\r\n        require(\r\n            withdrawAmount < 1000,\r\n            \"Thresold limit of 50 crossed not possible to proceed !!!!\"\r\n        );\r\n        if (withdrawAmount <= balances[msg.sender]) {\r\n            balances[msg.sender] -= withdrawAmount;\r\n            msg.sender.transfer(withdrawAmount);\r\n        }\r\n        return waring;\r\n    }\r\n\r\n    function balance() public view returns (uint256) {\r\n        return balances[msg.sender];\r\n    }\r\n\r\n    function depositsBalance() public view returns (uint256) {\r\n        return address(this).balance;\r\n    }\r\n}\r\n",
  "sourcePath": "C:/Users/Hamza/Ethereum/Truffle/project/contracts/MyContract.sol",
  "compiler": {
    "name": "solc",
    "version": "0.5.16+commit.9c3226ce.Emscripten.clang"
  },
  "schemaVersion": "3.3.2",
  "updatedAt": "2021-01-18T03:43:52.659Z",
  "networkType": "ethereum",
  "devdoc": {
    "methods": {
      "deposit1()": {
        "return": "The balance of the user after the deposit is made"
      }
    }
  },
  "userdoc": {
    "methods": {
      "deposit1()": {
        "notice": "Deposit ether into bank, requires method is \"payable\""
      }
    }
  }
}